:020000040800F2
:10000000002800203D1A0008A9170008AF170008B3
:10001000B5170008BB170008C11700080000000052
:10002000000000000000000000000000C7170008EA
:10003000D317000800000000DF170008EB170008C6
:10004000851A0008851A0008851A0008851A000814
:10005000851A0008851A0008851A0008851A000804
:10006000851A0008851A0008851A0008851A0008F4
:10007000851A0008851A0008851A0008851A0008E4
:10008000851A0008851A0008851A0008851A0008D4
:10009000851A0008851A0008851A0008851A0008C4
:1000A000851A0008851A0008851A0008851A0008B4
:1000B000F9170008851A000800000000851A0008DA
:1000C000851A00080000000000000000851A0008E2
:1000D00000000000851A0008851A000800000000D2
:1000E000851A0008851A0008851A0008000000001B
:1000F0000000000000000000000000000000000000
:0C01000000000000000000005FF808F1A3
:10010C0010B5054C237833B9044B13B10448AFF345
:10011C0000800123237010BD580000200000000057
:10012C00DC30000808B5034B1BB103490348AFF39F
:10013C00008008BD000000005C000020DC300008DE
:10014C0080B483B000AF7860044A7B68012142F828
:10015C00231000BF0C37BD4680BC704774000020D4
:10016C0080B582B000AF00237B6099E0514A7B6878
:10017C0052F8232050497B6841F823204F4A7B6872
:10018C0052F823204B497B6841F823207B68002BD5
:10019C0009D108214A4801F05BFF03461946474A3A
:1001AC007B6842F823107B68012B09D1102144484D
:1001BC0001F04EFF03461946404A7B6842F8231073
:1001CC007B68022B09D120213D4801F041FF0346F9
:1001DC0019463A4A7B6842F82310374A7B6852F832
:1001EC00232034497B6851F823309A4255D1314A47
:1001FC007B6852F8232031497B6851F823309A42AE
:10020C004BD1304A7B6852F823202C497B6851F83B
:10021C0023309A421CD0294A7B6852F82320294962
:10022C007B6841F82320254A7B6852F82330002B49
:10023C0008D17868FFF784FF234A7B68642142F871
:10024C0023102AE0214A7B68002142F8231024E085
:10025C001D4A7B6852F823305A1E1B497B6841F8B3
:10026C002320194A7B6852F82330002B15D1134AEE
:10027C007B6852F82330002B05D1144A7B6801218E
:10028C0042F8231004E0114A7B68002142F8231045
:10029C000D4A7B68642142F823107B6801337B6034
:1002AC007B68022B7FF762AF00BF00BF0837BD46EB
:1002BC0080BD00BF0C0000200000002018000020B2
:1002CC0000080140240000203000002080000020A5
:1002DC0080B582B000AF7860084611461A460346D6
:1002EC00FB700B46BB7013467B707B68002B29D1CF
:1002FC00FB781A4601212F4801F0C1FEBB781A4643
:10030C0002212C4801F0BBFE7B781A4604212948B7
:10031C0001F0B5FE3B7C1A460821264801F0AFFEE1
:10032C003B7D1A461021234801F0A9FE3B7E1A465C
:10033C002021204801F0A3FE3B7F1A4640211D4896
:10034C0001F09DFE7B68012B2FD1FB781A46802192
:10035C00184801F094FEBB781A464FF4807115488A
:10036C0001F08DFE7B781A464FF40071114801F0B4
:10037C0086FE3B7C1A464FF480610E4801F07FFEEE
:10038C003B7D1A464FF400610A4801F078FE3B7E33
:10039C001A464FF48051074801F071FE3B7F1A4614
:1003AC004FF40051034801F06AFE00BF0837BD4608
:1003BC0080BD00BF000C014080B586B004AF7860F2
:1003CC007B68092B00F2AE8001A252F823F000BF2B
:1003DC000504000823040008410400085F04000819
:1003EC007D0400089B040008B9040008D704000829
:1003FC00F50400081305000801230393002302935E
:10040C0000230193002300930023002200210020ED
:10041C00FFF75EFF95E00123039301230293012371
:10042C000193012300930023002201210020FFF7F8
:10043C004FFF86E0002303930123029300230193D3
:10044C00002300930123002200210020FFF740FF2E
:10045C0077E00023039301230293012301930023EC
:10046C0000930023002200210020FFF731FF68E0F9
:10047C000023039300230293012301930123009390
:10048C000023002201210020FFF722FF59E0002366
:10049C000393002302930123019300230093002371
:1004AC00012200210020FFF713FF4AE000230393F1
:1004BC0000230293002301930023009300230122C5
:1004CC0000210020FFF704FF3BE0012303930123ED
:1004DC0002930123019301230093002300220021A6
:1004EC000020FFF7F5FE2CE000230393002302937A
:1004FC0000230193002300930023002200210020FD
:10050C00FFF7E6FE1DE00023039300230293012373
:10051C000193002300930023002200210020FFF709
:10052C00D7FE0EE0012303930123029301230193D1
:10053C00012300930123012201210020FFF7C8FEB3
:10054C0000BF00BF0837BD4680BD00BF80B586B078
:10055C0004AF78607B68092B00F2AE8001A252F8E0
:10056C0023F000BF99050008B7050008D505000861
:10057C00F3050008110600082F0600084D060008B8
:10058C006B06000889060008A706000801230393E0
:10059C0000230293002301930023009300230022E5
:1005AC0000210120FFF794FE95E001230393012322
:1005BC0002930123019301230093002300220121C4
:1005CC000120FFF785FE86E00023039301230293AD
:1005DC00002301930023009301230022002101201A
:1005EC00FFF776FE77E000230393012302930123A8
:1005FC000193002300930023002200210120FFF728
:10060C0067FE68E000230393002302930123019308
:10061C00012300930023002201210120FFF758FE43
:10062C0059E0002303930023029301230193002339
:10063C0000930023012200210120FFF749FE4AE02C
:10064C0000230393002302930023019300230093C0
:10065C000023012200210120FFF73AFE3BE0012399
:10066C00039301230293012301930123009300239D
:10067C00002200210120FFF72BFE2CE00023039326
:10068C0000230293002301930023009300230022F4
:10069C0000210120FFF71CFE1DE000230393002323
:1006AC0002930123019300230093002300220021D5
:1006BC000120FFF70DFE0EE00123039301230293AB
:1006CC000123019301230093012301220121012025
:1006DC00FFF7FEFD00BF00BF0837BD4680BD00BF61
:1006EC0080B500AF5F4B1B68042B00F2B08001A2F9
:1006FC0052F823F015070008290700086B070008BB
:10070C00BB0700080B08000800F01EFE554B012229
:10071C001A604FF47A7000F08DFFA1E0524B1B6809
:10072C00012B05D100F03AFE4FF4FA7000F082FF75
:10073C004E4B1B68012B04D04D4B1B68012B40F01A
:10074C0088804A4B00221A604A4B00221A60454BA3
:10075C0002221A604FF47A7000F06CFF79E000F01E
:10076C001DFF424B1B68012B03D0414B1B68012B17
:10077C000CD13E4B00221A603E4B00221A60394BC2
:10078C0003221A604FF47A7000F054FF374B9B68C9
:10079C00012B03D0364B9B68012B5CD1334B0022D1
:1007AC009A6000F0E7FE2F4B00221A6053E000F035
:1007BC005FF92E4B1B68012B03D02D4B1B68012BB3
:1007CC000CD12A4B00221A602A4B00221A60254BAE
:1007DC0004221A604FF47A7000F02CFF234B9B68B4
:1007EC00012B03D0224B9B68012B36D11F4B0022CF
:1007FC009A6000F011F91B4B00221A602DE001F0F9
:10080C0003F91A4B1B68012B03D0194B1B68012BE6
:10081C000CD1164B00221A60164B00221A60114B99
:10082C0000221A604FF47A7000F004FF0F4B9B68A3
:10083C00012B03D00E4B9B68012B10D10B4B0022CC
:10084C009A6001F0B5F8074B00221A6007E000BF70
:10085C0006E000BF04E000BF02E000BF00E000BF04
:10086C0000BF80BD8C000020C80000207400002058
:10087C00800000209000002080B500AF1D4B1B684D
:10088C00002B26D11B4B01221A6000224FF48061F1
:10089C00194801F0F4FB00224FF40051164801F006
:1008AC00EEFB00224FF40061134801F0E8FB00223C
:1008BC004FF48051104801F0E2FB00224FF48041CC
:1008CC000D4801F0DCFB00224FF400410A4801F016
:1008DC00D6FB084B1B68012B09D14FF480510648FD
:1008EC0001F0E5FB4FF40041034801F0E0FB00BFD1
:1008FC0080BD00BF900000200008014080B500AF13
:10090C002E4B1B68002B23D1002240212C4801F0D8
:10091C00B6FB012280212A4801F0B1FB00224FF4E2
:10092C008071274801F0ABFB01224FF40071244881
:10093C0001F0A5FB234B1B68234A82FB0312921088
:10094C00DB17D31A1846FFF737FD0020FFF7FEFD23
:10095C001A4B1B68012B28D101224021184801F0A9
:10096C008EFB00228021164801F089FB01224FF4F6
:10097C008071134801F083FB00224FF40071104882
:10098C0001F07DFB0F4B1A680F4B83FB0213991080
:10099C00D317C91A0B469B000B445B00D11A0846AF
:1009AC00FFF70AFD0320FFF7D1FD044B1B68C3F1D1
:1009BC000103024A136000BF80BD00BF94000020F9
:1009CC0000080140400000206766666680B400AFF6
:1009DC000E4B5B68012B03D00D4B5B68012B11D1C7
:1009EC000A4B00225A600A4B00225A60094B1B68C2
:1009FC000133084A1360074B1B68632B02DD054B60
:100A0C0001221A6000BFBD4680BC704774000020F4
:100A1C00800000204000002080B400AF114B1A6809
:100A2C00114B1B681344632B09DD104B63221A60B6
:100A3C000E4B1A680B4B1B68D31A0B4A1360094BED
:100A4C001A68094B1B681344632B06DC054B1A68A8
:100A5C00054B1B681344054A136000BFBD4680BCA0
:100A6C00704700BF40000020440000203C000020E4
:100A7C0080B500AFFFF7AAFF064B1B68012B06D110
:100A8C00FA2000F09FFDFFF7F7FEFFF737FF00BFDE
:100A9C0080BD00BFB800002080B500AF00F0EEFFB5
:100AAC0000F018F800F09EF800F050F8074801F03C
:100ABC004FFF074B00221A600A2000F083FD0A202A
:100ACC0000F09CFDFFF70CFEFCE700BFD0000020FF
:100ADC008C00002080B590B000AF07F118032822DD
:100AEC000021184602F0ECFA3B1D00221A605A60F5
:100AFC009A60DA601A610223BB610123BB62102386
:100B0C00FB6200237B6307F11803184601F0E8FA37
:100B1C000346002B01D000F0EFF80F237B6000237D
:100B2C00BB600023FB6000233B6100237B613B1D0A
:100B3C000021184601F054FD0346002B01D000F0B3
:100B4C00DBF800BF4037BD4680BD000080B586B0E5
:100B5C0000AF07F1080300221A605A609A60DA604D
:100B6C003B4600221A605A601D4B4FF080421A60BF
:100B7C001B4B41F63F725A60194B00229A60184B7E
:100B8C000922DA60164B00221A61154B00229A6179
:100B9C00134801F08DFE0346002B01D000F0ACF899
:100BAC004FF48053BB6007F1080319460C4802F060
:100BBC0023F80346002B01D000F09EF800233B6085
:100BCC0000237B603B461946054802F0EBF90346CF
:100BDC00002B01D000F090F800BF1837BD4680BD47
:100BEC00D000002080B588B000AF07F110030022C0
:100BFC001A605A609A60DA60354B9B69344A43F04C
:100C0C0010039361324B9B6903F01003FB60FB688C
:100C1C002F4B9B692E4A43F0040393612C4B9B6929
:100C2C0003F00403BB60BB68294B9B69284A43F063
:100C3C0008039361264B9B6903F008037B607B6878
:100C4C0000224FF6C771234801F019FA002243F62F
:100C5C00FF71214801F013FA4FF400533B6100235C
:100C6C007B610023BB6107F1100319461B4801F09F
:100C7C0075F84FF6C7733B6101237B610023BB61A1
:100C8C000223FB6107F110031946124801F066F8C4
:100C9C0038233B6100237B610023BB6107F1100308
:100CAC0019460C4801F05AF843F6FF733B610123D7
:100CBC007B610023BB610223FB6107F11003194622
:100CCC00054801F04BF800BF2037BD4680BD00BF82
:100CDC000010024000080140000C014000100140CF
:100CEC0080B582B000AF7860FFF73AFA00F0BEFC36
:100CFC0000BF0837BD4680BD80B400AF72B600BFE0
:100D0C00FEE7000080B500AF6B4B1B68002B65D174
:100D1C006A4B1B680133694A1360684B1A68684B4D
:100D2C001B689A4223DA01224FF48061654801F076
:100D3C00A6F900224FF40061624801F0A0F90022EC
:100D4C004FF480515F4801F09AF900224FF40051A2
:100D5C005C4801F094F901224FF40041594801F02C
:100D6C008EF900224FF48041564801F088F9534B1C
:100D7C001A68534B1B689A4223DB01224FF48061A3
:100D8C00504801F07CF900224FF400614D4801F00D
:100D9C0076F900224FF480514A4801F070F9002294
:100DAC004FF40051474801F06AF900224FF400411A
:100DBC00444801F064F901224FF48041414801F0AC
:100DCC005EF93E4B1A68404B1B689A4206D13A4B6F
:100DDC0001221A60394B4FF0FF321A60364B1B68F8
:100DEC00012B66D1354B1B680133344A1360334BEE
:100DFC001A68334B1B689A4223DA00224FF4806145
:100E0C00304801F03CF900224FF400612D4801F00C
:100E1C0036F901224FF480512A4801F030F90122B1
:100E2C004FF40051274801F02AF900224FF40041F9
:100E3C00244801F024F900224FF48041214801F0AC
:100E4C001EF91E4B1A681E4B1B689A4223DB0022AC
:100E5C004FF480611B4801F012F901224FF400613C
:100E6C00184801F00CF900224FF48051154801F09C
:100E7C0006F901224FF40051124801F000F900224A
:100E8C004FF400410F4801F0FAF800224FF4804172
:100E9C000C4801F0F4F80C4B1B685A1E074B1B68EE
:100EAC009A4206D1044B00221A60044B4FF0FF32D9
:100EBC001A6000BF80BD00BF9800002048000020D1
:100ECC0040000020000801403C00002080B500AF2D
:100EDC00AB4B1B68002B4FD1AA4B1B68002B4BD183
:100EEC0000224021A84801F0CAF801228021A6481E
:100EFC0001F0C5F800224FF48071A34801F0BFF84F
:100F0C0001224FF40071A04801F0B9F89F4B1A6808
:100F1C009F4B1B68D31A9F4A82FB03129210DB175C
:100F2C00D31A1846FFF748FA9B4B1A689B4B1B6861
:100F3C009A420DDA994B1A68994B1B68D31A954A49
:100F4C0082FB03129210DB17D31A1846FFF7FEFA36
:100F5C00914B1A68914B1B689A420DDB914B1A68A6
:100F6C00914B1B68D31A8B4A82FB03129210DB172E
:100F7C00D31A1846FFF7EAFA814B1B68002B40F096
:100F8C00AA80804B1B68012B40F0A58001224021D8
:100F9C007D4801F074F8002280217B4801F06FF845
:100FAC0001224FF48071784801F069F800224FF467
:100FBC000071754801F063F8744B1A68744B1B6828
:100FCC00D21A744B83FB02139910D317C91A0B4610
:100FDC009B000B445B00D11A0846FFF7EDF96E4BF2
:100FEC001A686E4B1B689A4226DA6C4B1A686C4B6B
:100FFC001B68D21A674B83FB02139910D317C91ABB
:10100C000B469B000B445B00D11A0846FFF79EFA77
:10101C00634B1A68614B1B689A420DDA604B1B6874
:10102C0001335F4A13605E4B1A685C4B1B689A4233
:10103C0002DB5B4B00221A60574B1A68574B1B683C
:10104C009A4226DB574B1A68574B1B68D21A514BE6
:10105C0083FB02139910D317C91A0B469B000B4440
:10106C005B00D11A0846FFF771FA4F4B1A684D4BCB
:10107C001B689A420DDA4C4B1B6801334A4A1360C9
:10108C00494B1A68474B1B689A4202DB464B0022BD
:10109C001A603F4B1A683D4B1B689A420DDA3C4B69
:1010AC001B6801333A4A1360394B1A68374B1B687B
:1010BC009A4202DB364B00221A60374B1B68013315
:1010CC00354A1360344B1A68304B1B689A4202D174
:1010DC00314B00221A602A4B1B68012B66D1294B1D
:1010EC001B68002B62D100224021274800F0C7FF6B
:1010FC0001228021244800F0C2FF00224FF48071AD
:10110C00214800F0BCFF01224FF400711E4800F092
:10111C00B6FF1E4B1A681E4B1B68D31A1D4A82FB66
:10112C0003129210DB17D31A1846FFF70FFA1A4B5B
:10113C001A681A4B1B689A420DDA184B1A68184B2E
:10114C001B68D31A134A82FB03129210DB17D31AB3
:10115C001846FFF731F9104B1A68104B1B689A426E
:10116C0024DB104B1A68104B1B68D31A094A82FBFC
:10117C0003129210DB17D31A1846FFF71DF915E06E
:10118C0098000020A8000020000801403C0000202E
:10119C009C00002067666666AC00002040000020C2
:1011AC00A000002044000020A40000205B4B1B6822
:1011BC00012B40F0AA805A4B1B68012B40F0A580F4
:1011CC0001224021574800F05AFF00228021554847
:1011DC0000F055FF01224FF48071524800F04FFF90
:1011EC0000224FF400714F4800F049FF4E4B1A6833
:1011FC004E4B1B68D21A4E4B83FB02139910D3171C
:10120C00C91A0B469B000B445B00D11A0846FFF72A
:10121C009DF9484B1A68484B1B689A4226DA464B94
:10122C001A68464B1B68D21A414B83FB0213991068
:10123C00D317C91A0B469B000B445B00D11A084606
:10124C00FFF7BAF83D4B1A683B4B1B689A420DDA14
:10125C003A4B1B680133394A1360384B1A68364BCA
:10126C001B689A4202DB354B00221A60314B1A681C
:10127C00314B1B689A4226DB314B1A68314B1B6889
:10128C00D21A2B4B83FB02139910D317C91A0B4696
:10129C009B000B445B00D11A0846FFF78DF8294BD5
:1012AC001A68274B1B689A420DDA264B1B680133D0
:1012BC00244A1360234B1A68214B1B689A4202DBA9
:1012CC00204B00221A60194B1A68174B1B689A4264
:1012DC000DDA164B1B680133144A1360134B1A6852
:1012EC00114B1B689A4202DB104B00221A60114B07
:1012FC001B6801330F4A13600E4B1A680A4B1B68AC
:10130C009A4202D10B4B00221A60054B1B68C3F1A9
:10131C000103034A136000BF80BD00BF980000208A
:10132C00A8000020000801403C0000209C00002088
:10133C0067666666AC00002040000020A00000201C
:10134C0044000020A400002080B400AF0C4B00220D
:10135C001A600C4B4FF0FF321A600B4B00221A60D4
:10136C000A4B00221A600A4B00221A60094B002219
:10137C001A60094B00221A6000BFBD4680BC704742
:10138C0098000020480000209C000020A0000020B5
:10139C00A4000020A8000020AC00002080B500AF05
:1013AC000A4B1B68012B05D14FF47A7000F00AF937
:1013BC00FFF7A8FC064B1B68012B04D1FA2000F0A8
:1013CC001DF9FFF783FD00BF80BD00BFB8000020F2
:1013DC00C000002080B500AF1D4B1B68002B26D130
:1013EC001B4B01221A6000224FF48061194800F057
:1013FC0046FE00224FF40051164800F040FE002239
:10140C004FF40061134800F03AFE00224FF4805173
:10141C00104800F034FE00224FF480410D4800F0DB
:10142C002EFE00224FF400410A4800F028FE084B23
:10143C001B68012B09D14FF48061064800F037FE80
:10144C004FF40051034800F032FE00BF80BD00BFD6
:10145C00900000200008014080B500AF2E4B1B68A7
:10146C00002B23D1002240212C4800F008FE012241
:10147C0080212A4800F003FE00224FF48071274897
:10148C0000F0FDFD01224FF40071244800F0F7FD3F
:10149C00234B1B68234A82FB03129210DB17D31ACF
:1014AC001846FEF789FF0020FFF750F81A4B1B680F
:1014BC00012B28D101224021184800F0E0FD002228
:1014CC008021164800F0DBFD01224FF48071134897
:1014DC0000F0D5FD00224FF40071104800F0CFFD54
:1014EC000F4B1A680F4B83FB02139910D317C91AB1
:1014FC000B469B000B445B00D11A0846FEF75CFFC1
:10150C000220FFF723F8044B1B68C3F10103024AC6
:10151C00136000BF80BD00BFB00000200008014078
:10152C003C0000206766666680B400AF0E4B5B68BB
:10153C00012B03D00D4B5B68012B11D10A4B002200
:10154C005A600A4B00225A60094B1B680133084A47
:10155C001360074B1B68632B02DD054B01221A60DD
:10156C0000BFBD4680BC7047740000208000002086
:10157C003C00002080B400AF054B1A68054B1B687B
:10158C00D31A054A136000BFBD4680BC704700BF2C
:10159C003C000020440000204000002080B500AF3B
:1015AC00FFF7C2FF064B1B68012B06D1FA2000F097
:1015BC0009F8FFF70FFFFFF74FFF00BF80BD00BF1B
:1015CC00B800002080B483B000AF78607B68084A14
:1015DC0082FB03129210DB17D31A064A1360064BD8
:1015EC0000221A6000BF0C37BD4680BC704700BF9C
:1015FC0067666666B4000020B800002080B483B033
:10160C0000AF78607B68084A82FB03129210DB17EC
:10161C00D31A064A1360064B00221A6000BF0C371F
:10162C00BD4680BC704700BF67666666BC00002084
:10163C00C000002080B483B000AF78607B68084A9B
:10164C0082FB03129210DB17D31A064A1360064B67
:10165C0000221A6000BF0C37BD4680BC704700BF2B
:10166C0067666666C4000020C800002080B400AF26
:10167C00194B1B68002B0BDD174B1B68013B164AE3
:10168C001360154B1B68002B02DC144B01221A60F3
:10169C00134B1B68002B0BDD114B1B68013B104AD5
:1016AC0013600F4B1B68002B02DC0E4B01221A60DF
:1016BC000D4B1B68002B0BDD0B4B1B68013B0A4AC7
:1016CC001360094B1B68002B02DC084B01221A60CB
:1016DC0000BFBD4680BC7047B4000020B80000209D
:1016EC00BC000020C0000020C4000020C800002066
:1016FC0080B485B000AF154B9B69144A43F00103CD
:10170C009361124B9B6903F00103BB60BB680F4BE9
:10171C00DB690E4A43F08053D3610C4BDB6903F059
:10172C0080537B607B680A4B5B68FB60FB6823F033
:10173C00E063FB60FB6843F08063FB60044AFB687A
:10174C00536000BF1437BD4680BC70470010024088
:10175C000000014080B584B000AF78607B681B68E6
:10176C00B3F1804F13D10C4BDB690B4A43F00103EF
:10177C00D361094BDB6903F00103FB60FB680022BA
:10178C0000211C2000F0B3FA1C2000F0CCFA00BFA2
:10179C001037BD4680BD00BF0010024080B400AFC2
:1017AC00FEE780B400AFFEE780B400AFFEE780B484
:1017BC0000AFFEE780B400AFFEE780B400AF00BF1F
:1017CC00BD4680BC704780B400AF00BFBD4680BC36
:1017DC00704780B400AF00BFBD4680BC704780B579
:1017EC0000AF00F091F900BF80BD000080B500AFE4
:1017FC00024801F0F9F800BF80BD00BFD000002006
:10180C0080B400AF00BFBD4680BC704780B500AF50
:10181C001D4B1B68002B26D11B4B01221A6000228A
:10182C004FF48061194800F02AFC00224FF400515B
:10183C00164800F024FC00224FF40061134800F01D
:10184C001EFC00224FF48051104800F018FC0022BE
:10185C004FF480410D4800F012FC00224FF400417F
:10186C000A4800F00CFC084B1B68012B09D14FF403
:10187C000061064800F01BFC4FF48041034800F067
:10188C0016FC00BF80BD00BF900000200008014086
:10189C0080B500AF2E4B1B68002B23D100224021BA
:1018AC002C4800F0ECFB012280212A4800F0E7FBD9
:1018BC0000224FF48071274800F0E1FB01224FF425
:1018CC000071244800F0DBFB234B1B68234A82FB8E
:1018DC0003129210DB17D31A1846FEF76DFD002089
:1018EC00FEF734FE1A4B1B68012B28D10122402134
:1018FC00184800F0C4FB00228021164800F0BFFB02
:10190C0001224FF48071134800F0B9FB00224FF410
:10191C000071104800F0B3FB0F4B1A680F4B83FBA0
:10192C0002139910D317C91A0B469B000B445B008A
:10193C00D11A0846FEF740FD0420FEF707FE044BC3
:10194C001B68C3F10103024A136000BF80BD00BFD6
:10195C00CC00002000080140440000206766666649
:10196C0080B400AF0E4B5B68012B03D00D4B5B6852
:10197C00012B11D10A4B00225A600A4B00225A60EB
:10198C00094B1B680133084A1360084B1B68632B17
:10199C0002DD054B01221A6000BFBD4680BC7047BA
:1019AC007400002080000020440000204000002033
:1019BC0080B400AF114B1A68114B1B681344632B96
:1019CC0009DD104B63221A600E4B1A680C4B1B6816
:1019DC00D31A0A4A1360094B1A68094B1B68134443
:1019EC00632B06DC054B1A68054B1B681344054A30
:1019FC00136000BFBD4680BC704700BF4000002094
:101A0C00440000203C00002080B500AFFFF7A8FF89
:101A1C00064B1B68012B06D1FA20FFF7D3FDFFF70D
:101A2C00F5FEFFF735FF00BF80BD00BFB8000020FA
:101A3C00FFF7E6FE0B480C490C4A002302E0D45891
:101A4C00C4500433C4188C42F9D3094A094C0023FE
:101A5C0001E013600432A242FBD301F00DFBFFF74F
:101A6C001BF8704700000020580000201C310008B3
:101A7C00580000201C010020FEE7000080B500AFDC
:101A8C00084B1B68074A43F010031360032000F057
:101A9C0023F90F2000F008F8FFF72AFE0023184660
:101AAC0080BD00BF0020024080B582B000AF7860DE
:101ABC00124B1A68124B1B7819464FF47A73B3FB0E
:101ACC00F1F3B2FBF3F3184600F03BF90346002B9D
:101ADC0001D001230EE07B680F2B0AD80022796815
:101AEC004FF0FF3000F003F9064A7B6813600023C7
:101AFC0000E0012318460837BD4680BD4C0000208D
:101B0C00540000205000002080B400AF054B1B781F
:101B1C001A46054B1B681344034A136000BFBD46AD
:101B2C0080BC7047540000201801002080B400AF26
:101B3C00024B1B681846BD4680BC7047180100203C
:101B4C0080B485B000AF78607B6803F00703FB605E
:101B5C000C4BDB68BB60BA684FF6FF031340BB60ED
:101B6C00FB681A02BB68134343F0BF6343F40033B2
:101B7C00BB60044ABB68D36000BF1437BD4680BC51
:101B8C00704700BF00ED00E080B400AF044BDB6891
:101B9C001B0A03F007031846BD4680BC704700BF04
:101BAC0000ED00E080B483B000AF0346FB7197F901
:101BBC000730002B0BDBFB7903F01F02064997F96A
:101BCC0007305B09012000FA02F241F8232000BF24
:101BDC000C37BD4680BC704700E100E080B483B098
:101BEC0000AF03463960FB7197F90730002B0ADB15
:101BFC003B68DAB20C4997F907301201D2B20B44A8
:101C0C0083F800230AE03B68DAB20849FB7903F059
:101C1C000F03043B1201D2B20B441A7600BF0C37EF
:101C2C00BD4680BC704700BF00E100E000ED00E065
:101C3C0080B489B000AFF860B9607A60FB6803F0DB
:101C4C000703FB61FB69C3F10703042B28BF0423C3
:101C5C00BB61FB690433062B02D9FB69033B00E033
:101C6C0000237B614FF0FF32BB6902FA03F3DA43C6
:101C7C00BB681A407B699A404FF0FF317B6901FACF
:101C8C0003F3D9437B680B40134318462437BD46F6
:101C9C0080BC704780B582B000AF78607B68013B38
:101CAC00B3F1807F01D301230FE00A4A7B68013B2B
:101CBC0053600F214FF0FF30FFF790FF054B0022D0
:101CCC009A60044B07221A60002318460837BD4659
:101CDC0080BD00BF10E000E080B582B000AF78603E
:101CEC007868FFF72DFF00BF0837BD4680BD80B573
:101CFC0086B000AF0346B9607A60FB7300237B614A
:101D0C00FFF742FF78617A68B9687869FFF790FF4E
:101D1C00024697F90F3011461846FFF75FFF00BFD8
:101D2C001837BD4680BD80B582B000AF0346FB714D
:101D3C0097F907301846FFF735FF00BF0837BD4647
:101D4C0080BD80B582B000AF78607868FFF7A2FFE5
:101D5C00034618460837BD4680BD000080B48BB0E2
:101D6C0000AF7860396000237B6200233B6248E15E
:101D7C0001227B6A02FA03F3FB613B681B68FA6978
:101D8C001340BB61BA69FB699A4240F037813B68EA
:101D9C005B68A34A93425ED0A14A934275D8A14A8C
:101DAC00934258D09F4A93426FD89F4A934252D045
:101DBC009D4A934269D89D4A93424CD09B4A934288
:101DCC0063D89B4A934246D0994A93425DD8122BD2
:101DDC002AD8122B59D801A252F823F0631E0008FE
:101DEC003D1E00084F1E0008911E0008971E00089B
:101DFC00971E0008971E0008971E0008971E0008E3
:101E0C00971E0008971E0008971E0008971E0008D2
:101E1C00971E0008971E0008971E0008971E0008C2
:101E2C00451E0008591E0008824A934213D02CE02C
:101E3C003B68DB683B6229E03B68DB6804333B6250
:101E4C0024E03B68DB6808333B621FE03B68DB68DF
:101E5C000C333B621AE03B689B68002B02D10423D5
:101E6C003B6213E03B689B68012B05D108233B6266
:101E7C007B68FA691A6109E008233B627B68FA699E
:101E8C005A6103E000233B6200E000BFBB69FF2BFB
:101E9C0001D87B6801E07B6804337B61BB69FF2B55
:101EAC0002D87B6A9B0002E07B6A083B9B003B618B
:101EBC007B691A680F213B6901FA03F3DB431A4073
:101ECC00396A3B6901FA03F31A437B691A603B6870
:101EDC005B6803F08053002B00F09080564B9B699D
:101EEC00554A43F001039361534B9B6903F0010383
:101EFC00BB60BB68514A7B6A9B08023352F82330A3
:101F0C00FB607B6A03F003039B000F2202FA03F3CE
:101F1C00DB43FA681340FB607B68494A93420DD05F
:101F2C007B68484A934207D07B68474A934201D169
:101F3C00022304E0032302E0012300E000237A6A79
:101F4C0002F0030292009340FA681343FB603B4992
:101F5C007B6A9B080233FA6841F823203B685B6874
:101F6C0003F48033002B06D0384B1A683749BB6911
:101F7C0013430B6006E0354B1A68BB69DB433349EE
:101F8C0013400B603B685B6803F40033002B06D0F6
:101F9C002E4B5A682D49BB6913434B6006E02B4B03
:101FAC005A68BB69DB43294913404B603B685B684B
:101FBC0003F48013002B06D0244B9A682349BB6989
:101FCC0013438B6006E0214B9A68BB69DB431F49C6
:101FDC0013408B603B685B6803F40013002B06D046
:101FEC001A4BDA681949BB691343CB6006E0174BEF
:101FFC00DA68BB69DB4315491340CB607B6A01335C
:10200C007B623B681A687B6A22FA03F3002B7FF42D
:10201C00AFAE00BF00BF2C37BD4680BC704700BFC1
:10202C0000003210000031100000221000002110BE
:10203C0000001210000011100010024000000140BE
:10204C0000080140000C0140001001400004014058
:10205C0080B485B000AF78600B467B807B689A6853
:10206C007B881340002B02D00123FB7301E000237B
:10207C00FB73FB7B18461437BD4680BC704780B49D
:10208C0083B000AF78600B467B8013467B707B7807
:10209C00002B03D07A887B681A6103E07B881A04D2
:1020AC007B681A6100BF0C37BD4680BC704780B49A
:1020BC0085B000AF78600B467B807B68DB68FB608B
:1020CC007A88FB6813401A04FB68D9437B880B4061
:1020DC001A437B681A6100BF1437BD4680BC704739
:1020EC0080B586B000AF78607B68002B01D10123EE
:1020FC006CE27B681B6803F00103002B00F0878007
:10210C00924B5B6803F00C03042B0CD08F4B5B6879
:10211C0003F00C03082B12D18C4B5B6803F4803357
:10212C00B3F5803F0BD1894B1B6803F40033002BB4
:10213C006CD07B685B68002B68D1012346E27B681E
:10214C005B68B3F5803F06D1804B1B687F4A43F434
:10215C00803313602EE07B685B68002B0CD17B4BCB
:10216C001B687A4A23F480331360784B1B68774AD8
:10217C0023F4802313601DE07B685B68B3F5A02F0C
:10218C000CD1724B1B68714A43F4802313606F4B64
:10219C001B686E4A43F4803313600BE06B4B1B6877
:1021AC006A4A23F480331360684B1B68674A23F434
:1021BC00802313607B685B68002B13D0FFF7B6FCA1
:1021CC00386108E0FFF7B2FC02463B69D31A642B76
:1021DC0001D90323FAE15D4B1B6803F40033002B98
:1021EC00F0D014E0FFF7A2FC386108E0FFF79EFC8A
:1021FC0002463B69D31A642B01D90323E6E1534B06
:10220C001B6803F40033002BF0D100E000BF7B68A7
:10221C001B6803F00203002B63D04C4B5B6803F08C
:10222C000C03002B0BD0494B5B6803F00C03082B01
:10223C001CD1464B5B6803F48033002B16D1434B07
:10224C001B6803F00203002B05D07B681B69012B74
:10225C0001D00123BAE13D4B1B6823F0F8027B68E7
:10226C005B69DB00394913430B603AE07B681B69FF
:10227C00002B20D0364B01221A60FFF757FC386137
:10228C0008E0FFF753FC02463B69D31A022B01D935
:10229C0003239BE12D4B1B6803F00203002BF0D0B2
:1022AC002A4B1B6823F0F8027B685B69DB0027492B
:1022BC0013430B6015E0264B00221A60FFF736FC27
:1022CC00386108E0FFF732FC02463B69D31A022B57
:1022DC0001D903237AE11D4B1B6803F00203002B89
:1022EC00F0D17B681B6803F00803002B3AD07B68A5
:1022FC009B69002B19D0174B01221A60FFF716FCB3
:10230C00386108E0FFF712FC02463B69D31A022B36
:10231C0001D903235AE10D4B5B6A03F00203002B36
:10232C00F0D0012000F0A6FA1CE00A4B00221A6043
:10233C00FFF7FCFB38610FE0FFF7F8FB02463B6947
:10234C00D31A022B08D9032340E100BF001002402E
:10235C0000004242800442429E4B5B6A03F002033F
:10236C00002BE9D17B681B6803F00403002B00F001
:10237C00A6800023FB75974BDB6903F08053002B81
:10238C000DD1944BDB69934A43F08053D361914B4D
:10239C00DB6903F08053BB60BB680123FB758E4B7C
:1023AC001B6803F48073002B18D18B4B1B688A4A73
:1023BC0043F480731360FFF7B9FB386108E0FFF753
:1023CC00B5FB02463B69D31A642B01D90323FDE00C
:1023DC00814B1B6803F48073002BF0D07B68DB68A7
:1023EC00012B06D17B4B1B6A7A4A43F00103136223
:1023FC002DE07B68DB68002B0CD1764B1B6A754A91
:10240C0023F001031362734B1B6A724A23F004031B
:10241C0013621CE07B68DB68052B0CD16D4B1B6ACF
:10242C006C4A43F0040313626A4B1B6A694A43F01B
:10243C00010313620BE0674B1B6A664A23F001032E
:10244C001362644B1B6A634A23F0040313627B68B8
:10245C00DB68002B15D0FFF769FB38610AE0FFF74A
:10246C0065FB02463B69D31A41F28832934201D98B
:10247C000323ABE0574B1B6A03F00203002BEED097
:10248C0014E0FFF753FB38610AE0FFF74FFB0246FD
:10249C003B69D31A41F28832934201D9032395E068
:1024AC004C4B1B6A03F00203002BEED1FB7D012B7E
:1024BC0005D1484BDB69474A23F08053D3617B68D5
:1024CC00DB69002B00F08180424B5B6803F00C034E
:1024DC00082B61D07B68DB69022B46D13F4B002275
:1024EC001A60FFF723FB386108E0FFF71FFB024679
:1024FC003B69D31A022B01D9032367E0354B1B68C8
:10250C0003F00073002BF0D17B681B6AB3F5803F9E
:10251C0008D1304B5B6823F400327B689B682D49F3
:10252C0013434B602B4B5B6823F474127B68196A62
:10253C007B685B6A0B43274913434B60274B012293
:10254C001A60FFF7F3FA386108E0FFF7EFFA02467A
:10255C003B69D31A022B01D9032337E01D4B1B68AF
:10256C0003F00073002BF0D02FE01C4B00221A60FC
:10257C00FFF7DCFA386108E0FFF7D8FA02463B694E
:10258C00D31A022B01D9032320E0124B1B6803F052
:10259C000073002BF0D118E07B68DB69012B01D1B3
:1025AC00012313E00B4B5B68FB60FB6803F4803288
:1025BC007B681B6A9A4206D1FB6803F470127B6835
:1025CC005B6A9A4201D0012300E0002318461837B9
:1025DC00BD4680BD001002400070004060004242C9
:1025EC0080B584B000AF786039607B68002B01D176
:1025FC000123D0E06A4B1B6803F007033A689A4248
:10260C0010D9674B1B6823F0070265493B681343DD
:10261C000B60634B1B6803F007033A689A4201D0C6
:10262C000123B8E07B681B6803F00203002B20D069
:10263C007B681B6803F00403002B05D0594B5B68C7
:10264C00584A43F4E06353607B681B6803F008034B
:10265C00002B05D0534B5B68524A43F460535360D4
:10266C00504B5B6823F0F0027B689B684D49134329
:10267C004B607B681B6803F00103002B40D07B6828
:10268C005B68012B07D1474B1B6803F40033002B0D
:10269C0015D101237FE07B685B68022B07D1414B8E
:1026AC001B6803F00073002B09D1012373E03D4B31
:1026BC001B6803F00203002B01D101236BE0394BA3
:1026CC005B6823F003027B685B68364913434B60FD
:1026DC00FFF72CFAF8600AE0FFF728FA0246FB68CD
:1026EC00D31A41F28832934201D9032353E02D4B84
:1026FC005B6803F00C027B685B689B009A42EBD131
:10270C00274B1B6803F007033A689A4210D2244BFC
:10271C001B6823F0070222493B6813430B60204BD4
:10272C001B6803F007033A689A4201D0012332E098
:10273C007B681B6803F00403002B08D0194B5B6803
:10274C0023F4E0627B68DB68164913434B607B68BB
:10275C001B6803F00803002B09D0124B5B6823F4B1
:10276C0060527B681B69DB000E4913434B6000F021
:10277C0021F802460B4B5B681B0903F00F030A4957
:10278C00CB5C22FA03F3094A1360094B1B68184609
:10279C00FFF78AF9002318461037BD4680BD00BFED
:1027AC000020024000100240043100084C000020C0
:1027BC005000002090B48AB000AF2A4B3C1D0FCBC8
:1027CC0084E80F0040F201233B800023FB610023CF
:1027DC00BB6100237B6200237B6100233B62224BA5
:1027EC005B68FB61FB6903F00C03042B02D0082B24
:1027FC0003D02DE01D4B3B622DE0FB699B0C03F0DD
:10280C000F0307F12802134413F8243C7B61FB6986
:10281C0003F48033002B13D0134B5B685B0C03F079
:10282C00010307F12802134413F8283CBB617B69B0
:10283C000E4A02FB03F2BB69B2FBF3F37B6204E0CA
:10284C007B690B4A02FB03F37B627B6A3B6202E00F
:10285C00064B3B6200BF3B6A18462837BD4690BC0E
:10286C00704700BFF43000080010024000127A00DC
:10287C0000093D0080B485B000AF78600A4B1B683E
:10288C000A4AA2FB03235B0A7A6802FB03F3FB6090
:10289C0000BFFB685A1EFA60002BF9D100BF00BFC5
:1028AC001437BD4680BC70474C000020D34D6210DD
:1028BC0080B582B000AF78607B68002B01D101231A
:1028CC0041E07B6893F83D30DBB2002B06D17B688E
:1028DC00002283F83C207868FEF73CFF7B680222DC
:1028EC0083F83D207B681A687B68043319461046D0
:1028FC0000F06AFA7B68012283F846207B6801228B
:10290C0083F83E207B68012283F83F207B680122FC
:10291C0083F840207B68012283F841207B680122E8
:10292C0083F842207B68012283F843207B680122D4
:10293C0083F844207B68012283F845207B680122C0
:10294C0083F83D20002318460837BD4680BD0000A3
:10295C0080B485B000AF78607B6893F83D30DBB213
:10296C00012B01D0012335E07B68022283F83D2046
:10297C007B681B68DA687B681B6842F00102DA60CE
:10298C007B681B68164A934209D07B681B68B3F1BD
:10299C00804F04D07B681B68124A934211D17B682C
:1029AC001B689B6803F00703FB60FB68062B10D0C9
:1029BC007B681B681A687B681B6842F001021A600E
:1029CC0007E07B681B681A687B681B6842F0010291
:1029DC001A60002318461437BD4680BC704700BFF0
:1029EC00002C01400004004080B582B000AF78603C
:1029FC007B681B681B6903F00203022B22D17B68E6
:102A0C001B68DB6803F00203022B1BD17B681B687D
:102A1C006FF002021A617B6801221A777B681B68CF
:102A2C009B6903F00303002B03D0786800F0B1F925
:102A3C0005E0786800F0A4F9786800F0B3F97B68D9
:102A4C0000221A777B681B681B6903F00403042BB4
:102A5C0022D17B681B68DB6803F00403042B1BD1B9
:102A6C007B681B686FF004021A617B6802221A777C
:102A7C007B681B689B6903F44073002B03D0786858
:102A8C0000F087F905E0786800F07AF9786800F0D2
:102A9C0089F97B6800221A777B681B681B6903F035
:102AAC000803082B22D17B681B68DB6803F0080342
:102ABC00082B1BD17B681B686FF008021A617B68BE
:102ACC0004221A777B681B68DB6903F00303002B75
:102ADC0003D0786800F05DF905E0786800F050F9F3
:102AEC00786800F05FF97B6800221A777B681B68B6
:102AFC001B6903F01003102B22D17B681B68DB6869
:102B0C0003F01003102B1BD17B681B686FF01002B5
:102B1C001A617B6808221A777B681B68DB6903F4EF
:102B2C004073002B03D0786800F033F905E0786827
:102B3C0000F026F9786800F035F97B6800221A77E6
:102B4C007B681B681B6903F00103012B0ED17B68AA
:102B5C001B68DB6803F00103012B07D17B681B6842
:102B6C006FF001021A617868FEF7BAF87B681B688F
:102B7C001B6903F08003802B0ED17B681B68DB681C
:102B8C0003F08003802B07D17B681B686FF08002F9
:102B9C001A61786800F067FA7B681B681B6903F0A0
:102BAC004003402B0ED17B681B68DB6803F04003AD
:102BBC00402B07D17B681B686FF040021A61786864
:102BCC0000F0F9F87B681B681B6903F02003202BCD
:102BDC000ED17B681B68DB6803F02003202B07D128
:102BEC007B681B686FF020021A61786800F032FA7B
:102BFC0000BF0837BD4680BD80B584B000AF78609B
:102C0C0039607B6893F83C30012B01D10223B3E08F
:102C1C007B68012283F83C207B68022283F83D20EC
:102C2C007B681B689B68FB60FB6823F07703FB6089
:102C3C00FB6823F47F43FB607B681B68FA689A602F
:102C4C003B681B68B3F5005F3ED0B3F5005F00F244
:102C5C008780B3F5805F00F08580B3F5805F7FD807
:102C6C00702B1AD0702B7BD8602B50D0602B77D860
:102C7C00502B3CD0502B73D8402B58D0402B6FD8B6
:102C8C00302B64D0302B6BD8202B60D0202B67D806
:102C9C00002B5CD0102B5AD062E07B6818683B6824
:102CAC0099683B685A683B68DB6800F05CF97B68A4
:102CBC001B689B68FB60FB6843F07703FB607B68D9
:102CCC001B68FA689A604EE07B6818683B689968E4
:102CDC003B685A683B68DB6800F045F97B681B6809
:102CEC009A687B681B6842F480429A603BE07B6880
:102CFC0018683B6859683B68DB681A4600F0BCF8FA
:102D0C007B681B685021184600F013F92BE07B6898
:102D1C0018683B6859683B68DB681A4600F0DAF8BB
:102D2C007B681B686021184600F003F91BE07B6888
:102D3C0018683B6859683B68DB681A4600F09CF8D9
:102D4C007B681B684021184600F0F3F80BE07B68A9
:102D5C001A683B681B681946104600F0EAF802E056
:102D6C0000BF00E000BF7B68012283F83D207B6838
:102D7C00002283F83C20002318461037BD4680BD46
:102D8C0080B483B000AF786000BF0C37BD4680BC08
:102D9C00704780B483B000AF786000BF0C37BD467D
:102DAC0080BC704780B483B000AF786000BF0C3734
:102DBC00BD4680BC704780B483B000AF786000BF64
:102DCC000C37BD4680BC704780B485B000AF7860CE
:102DDC0039607B681B68FB607B68254A934207D08F
:102DEC007B68B3F1804F03D07B68224A934208D1B1
:102DFC00FB6823F07003FB603B685B68FA68134365
:102E0C00FB607B681A4A934207D07B68B3F1804F12
:102E1C0003D07B68174A934208D1FB6823F44073B4
:102E2C00FB603B68DB68FA681343FB60FB6823F0CC
:102E3C0080023B685B691343FB607B68FA681A602D
:102E4C003B689A687B68DA623B681A687B689A62AE
:102E5C007B68074A934203D13B681A697B681A6303
:102E6C007B6801225A6100BF1437BD4680BC704795
:102E7C00002C01400004004080B487B000AFF86023
:102E8C00B9607A60FB681B6A7B61FB681B6A23F084
:102E9C000102FB681A62FB689B693B613B6923F08A
:102EAC00F0033B617B681B013A6913433B617B690F
:102EBC0023F00A037B617A69BB6813437B61FB686F
:102ECC003A699A61FB687A691A6200BF1C37BD4681
:102EDC0080BC704780B487B000AFF860B9607A608E
:102EEC00FB681B6A23F01002FB681A62FB689B6983
:102EFC007B61FB681B6A3B617B6923F470437B61DC
:102F0C007B681B037A6913437B613B6923F0A00345
:102F1C003B61BB681B013A6913433B61FB687A69EF
:102F2C009A61FB683A691A6200BF1C37BD4680BCC7
:102F3C00704780B485B000AF786039607B689B685F
:102F4C00FB60FB6823F07003FB603A68FB6813437B
:102F5C0043F00703FB607B68FA689A6000BF143784
:102F6C00BD4680BC704780B487B000AFF860B960D4
:102F7C007A603B60FB689B687B617B6923F47F43D1
:102F8C007B613B681A027B681A43BB6813437A69FE
:102F9C0013437B61FB687A699A6000BF1C37BD469E
:102FAC0080BC704780B485B000AF786039607B68B6
:102FBC0093F83C30012B01D1022341E07B680122C4
:102FCC0083F83C207B68022283F83D207B681B68D9
:102FDC005B68FB607B681B689B68BB60FB6823F0CD
:102FEC007003FB603B681B68FA681343FB607B68EB
:102FFC001B68FA685A607B681B68144A934209D0B4
:10300C007B681B68B3F1804F04D07B681B68104A47
:10301C0093420CD1BB6823F08003BB603B685B68B8
:10302C00BA681343BB607B681B68BA689A607B689C
:10303C00012283F83D207B68002283F83C2000238A
:10304C0018461437BD4680BC704700BF002C0140A9
:10305C000004004080B483B000AF786000BF0C3730
:10306C00BD4680BC704780B483B000AF786000BFB1
:10307C000C37BD4680BC704770B500260C4D0D4C0E
:10308C00641BA410A64209D100F022F800260A4DB8
:10309C000A4C641BA410A64205D170BD55F8043B24
:1030AC0098470136EEE755F8043B98470136F2E7AE
:1030BC0014310008143100081431000818310008CC
:1030CC0003460244934200D1704703F8011BF9E711
:1030DC00F8B500BFF8BC08BC9E467047F8B500BFF9
:0830EC00F8BC08BC9E467047C9
:1030F40002030405060708090A0B0C0D0E0F101035
:103104000000000000000000010203040607080993
:04311400310100087D
:043118000D0100089D
:10311C00010000000100000001000000010000009F
:10312C00010000000100000001000000010000008F
:10313C00010000000100000001000000010000007F
:10314C006400000064000000640000000500000042
:10315C000300000002000000FFFFFFFF00127A00D6
:08316C0010000000010000004A
:0400000508001A3D98
:00000001FF
